:100000000C94E8040C947C1B0C942F050C942F0585
:100010000C942F050C942F050C942F050C942F0590
:100020000C942F050C942F050C94012F0C94D52FB4
:100030000C946C290C942F050C942F050C942F050F
:100040000C942F050C942F050C942F050C942F0560
:100050000C942F050C94B7290C942F050C942F05A4
:100060000C942F050C942F050C942F050C942F0540
:100070000C942F050C942F050C942F050C942F0530
:100080000C942F050C942F050C942F050C942F0520
:100090000C942F050C942F050C942F050C942F0510
:1000A0000C942F050C942F050C942F0529001E008D
:1000B0001F002000210022002B0014001A0008005D
:1000C00015001700390004001600070009000A0097
:1000D000E1001D001B0006001900050000000000E3
:1000E000E0002F00095DAE002A0027002600250051
:1000F000240023003400130012000C0018001C0020
:10010000280033000F000E000D000B00E500380042
:10011000370036001000110000000000E60030003B
:100120002C000A5DA800AD00AF0001000100010035
:1001300001000100010001000100010001000100B7
:100140005000510052004F00010001000100010069
:100150000100010000000000010001000100010099
:10016000010001000100B200B100B4000100010073
:1001700001000100010001003100010001002E001A
:100180002D0001004F0052005100500001000100FD
:100190000000000001000100010001003A003B00E6
:1001A0003C003D003E003F00C25CCD5CCE5CC65CC6
:1001B000C55CC85C010001000100010001000100F4
:1001C000005C015C01000100010001000000000072
:1001D000010001000100010045004400430042000D
:1001E000410040002A00CB5CCC5CC95CCA5CC75CA7
:1001F0004B00010001000100010001004E00AE00B3
:10020000A900AA00AB00AC00000000000100010042
:100210000100010044454255473A20646973616218
:100220006C65642E0A0044454255473A20656E616C
:10023000626C65642E0A000A0025303862003A209C
:100240000025303258000A722F63203031323334A7
:100250003536370A007267626C6967687420616EB0
:10026000696D6174696F6E207469636B207265706B
:100270006F727420746F20736C6176650A00726708
:10028000626C696768742074696D65722064697353
:1002900061626C652E0A007267626C69676874201F
:1002A00074696D657220656E61626C65642E0A000A
:1002B0007267626C6967687420736574206873760E
:1002C000205B4E4F454550524F4D5D3A2025752CD1
:1002D00025752C25750A007267626C696768742041
:1002E00073657420687376205B454550524F4D5DB1
:1002F0003A2025752C25752C25750A007267626CCD
:1003000069676874207261696E626F7720736574C3
:10031000206873763A2025642C25642C25642C25CE
:10032000750A007267626C6967687420646973613A
:10033000626C65205B4E4F454550524F4D5D3A20F3
:100340007267626C696768745F636F6E6669672E57
:10035000656E61626C65203D2025750A00726762DA
:100360006C696768742064697361626C65205B45C1
:100370004550524F4D5D3A207267626C69676874F0
:100380005F636F6E6669672E656E61626C65203DA6
:100390002025750A007267626C6967687420656E53
:1003A00061626C65205B454550524F4D5D3A20724D
:1003B00067626C696768745F636F6E6669672E65F4
:1003C0006E61626C65203D2025750A007267626C63
:1003D0006967687420746F67676C65205B4545507A
:1003E000524F4D5D3A207267626C696768745F6353
:1003F0006F6E6669672E656E61626C65203D2025B3
:10040000750A007267626C69676874206D6F646555
:10041000205B4E4F454550524F4D5D3A2025750AA1
:10042000007267626C69676874206D6F6465205B39
:10043000454550524F4D5D3A2025750A007267625E
:100440006C696768745F696E6974207267626C6951
:100450006768745F636F6E6669672E6D6F64652091
:100460003D20302E20577269746520646566617581
:100470006C742076616C75657320746F20454550EF
:10048000524F4D2E0A007267626C696768745F692B
:100490006E6974206565636F6E6669672069732095
:1004A0006E6F7420656E61626C65642E0A007267FF
:1004B000626C696768745F696E69742073746172D5
:1004C00074210A007267626C696768745F696E699B
:1004D000742063616C6C65642E0A007267626C69DB
:1004E0006768745F636F6E6669672E7370656564B5
:1004F000203D2025640A007267626C696768745F3A
:10050000636F6E6669672E76616C203D2025640AF4
:10051000007267626C696768745F636F6E666967B3
:100520002E736174203D2025640A007267626C6935
:100530006768745F636F6E6669672E687565203DD6
:100540002025640A007267686C696768745F636F6E
:100550006E6669672E6D6F6465203D2025640A0014
:100560007267626C696768745F636F6E6669672E35
:10057000656E61626C65203D2025640A00726762C9
:100580006C696768745F636F6E6669672045455084
:10059000524F4D3A0A0032190A00047F3F1F64325D
:1005A00014643214783C1E1E140A052223252628C2
:1005B000292A2C2D2F3032333536383A3B3D3E40F8
:1005C00042434547494A4C4E5051535557595A5C3E
:1005D0005E6062646668696B6D6F71737577797B55
:1005E0007D7F81838587898A8C8E90929496989A54
:1005F0009C9E9FA1A3A5A7A8AAACAEAFB1B3B4B669
:10060000B8B9BBBCBEBFC1C2C3C5C6C7C9CACBCCC3
:10061000CDCED0D1D2D2D3D4D5D6D7D7D8D9D9DA96
:10062000DADBDBDBDCDCDCDCDCDDDDDDDDDCDCDC0B
:10063000DCDCDBDBDBDADAD9D9D8D7D7D6D5D4D333
:10064000D2D2D1D0CECDCCCBCAC9C7C6C5C3C2C108
:10065000BFBEBCBBB9B8B6B4B3B1AFAEACAAA8A765
:10066000A5A3A19F9E9C9A98969492908E8C8A891D
:10067000878583817F7D7B79777573716F6D6B69FA
:1006800068666462605E5C5A5957555351504E4CCF
:100690004A4947454342403E3D3B3A38363533327E
:1006A000302F2D2C2A292826252322FFAA7F5540CA
:1006B0006261636B6C6967687420737465703A205B
:1006C00025750A006261636B6C69676874206469F0
:1006D0007361626C650A006261636B6C6967687460
:1006E00020656E61626C650A006261636B6C6967AC
:1006F000687420746F67676C653A2025750A00621C
:1007000061636B6C696768742064656372656173AB
:10071000653A2025750A006261636B6C69676874CD
:1007200020696E6372656173653A2025750A000061
:1007300001010101010101010102020202020202A2
:100740000202030303030303030304040404040475
:10075000040505050505060606060607070707073B
:1007600008080808090909090A0A0A0B0B0B0C0CEE
:100770000C0D0D0D0E0E0E0F0F0F1010111111128A
:100780001213131414151516161717181819191A09
:100790001A1B1B1C1D1D1E1E1F202021222223246C
:1007A00024252626272829292A2B2C2D2D2E2F30AB
:1007B000313232333435363738393A3B3C3D3E3FBF
:1007C000404142434445464748494A4C4D4E4F50AC
:1007D000515354555658595A5B5D5E5F616264656A
:1007E0006668696B6C6D6F7072737577787A7B7DF4
:1007F0007E8082838587888A8C8E8F919395969848
:100800009A9C9EA0A2A3A5A7A9ABADAFB1B3B5B763
:10081000BABCBEC0C2C4C6C9CBCDCFD1D4D6D8DB3A
:10082000DDDFE2E4E7E9EBEEF0F3F5F8FAFDFF0ACD
:10083000002530325820006B6579626F6172645F09
:100840007265706F72743A20000A002530325800C9
:100850006B6579626F6172645F7365745F6C656408
:100860003A20005B735D004B6579626F61726420B2
:1008700073746172742E0A005B575D005B535D00F8
:100880005B525D005B445D005B435D000403300030
:10089000000026034B0065006500620069006F00E0
:1008A00020004900720069007300200052006500BA
:1008B00076002E002000340000000E034B0065007F
:1008C0006500620069006F0000000403090409026A
:1008D0005B00030100A0FA0904000001030101000C
:1008E0000921110100012240000705810308000AC7
:1008F0000904010001030000000921110100012287
:1009000032000705820320000A09040200020300E6
:1009100000000921110100012222000705830320A4
:10092000000107050303200001120110010000006F
:100930000810CB56420004010203010631FF09747E
:10094000A1010975150026FF00952075088102098F
:1009500076150026FF00952075089102C005010953
:1009600080A101850319012AB700150126B700955A
:100970000175108100C0050C0901A1018504190150
:100980002AA002150126A002950175108100C0055C
:10099000010906A101050719E029E71500250195C0
:1009A0000875018102950175088101050719002963
:1009B000FF150026FF00950675088100050819013E
:1009C0002905950575019102950175039101C000F6
:1009D00011241FBECFEFDAE0DEBFCDBF04B603FEA9
:1009E00027C08091540390915503A0915603B09174
:1009F00057038730904BA740B04BD1F4109254036B
:100A000010925503109256031092570314BE84B7E8
:100A1000877F84BF0FB6F894A895809160008861A5
:100A200080936000109260000FBEE0E0F8E309954B
:100A300011E0A0E0B1E0E0E6F6E602C005900D921C
:100A4000A83FB107D9F723E0A8EFB1E001C01D929C
:100A5000A435B207E1F70E94272C0C94F2320C94D3
:100A60000000FF93EF93E091F801F091F9013097C6
:100A700009F00995EF91FF910895FC01859180306F
:100A800011F0EFDFFBCF0895FF27E0E230E247FFF0
:100A90000CC0419597FF09C0EDE260957095809577
:100AA0009095611D711D811D911D27FF02C021952B
:100AB00030E350E2AA27660F771F881F991FAA1FED
:100AC000A41710F0A41B63955A95A9F7AA3008F053
:100AD000A95FA05DAF93F39561157105810591053F
:100AE00041F7ED3211F4EF93F395F21718F43F93B9
:100AF000F395FBCF8F91B5DFFA95E1F70895E99172
:100B0000F9918591803021F0853219F0AADFF9CF73
:100B1000089520E0E89455915532C1F3503311F413
:100B2000689455915A3348F4505390F3220F022E93
:100B3000220F220F200D250FF4CF0EF4219589915D
:100B40009991533619F3533729F1533559F1BC01B3
:100B500088279927E8945C3621F4899199916894C3
:100B60005591543639F446EF7EF077FF0DC08FEF84
:100B70009FEF0AC055374AE039F0583540E121F07F
:100B8000523642E009F00895FF93EF937DDFEF9135
:100B9000FF91B7CFFF93EF93FC0181918030B9F3C0
:100BA00060DFFBCFFF93EF9368DFF1CFDF93CF934D
:100BB000CDB7DEB72596A3DFCF91DF9108950E94D0
:100BC000311683E00E94E1160E940B134FEF6FEF86
:100BD00080E00E949A0F8BE00E94081360E070E0B2
:100BE000CB010E9451280C945D28CF93FB018930E2
:100BF0002DE5920791F08A302DE59207A9F0C1E02A
:100C000088309D4539F4C281CC2321F080E00E94D8
:100C1000BF06C0E08C2FCF910895C28181E0CC2324
:100C200031F00E947425F5CFC28182E0F8CF0E9496
:100C30009525F0CFCF93C62F811110C06091DC02B3
:100C40007091DD028091DE029091DF020E94B02758
:100C5000813069F0882321F0823071F0CF910895BE
:100C600089EAC11101C08AEACF910C94041F8BE478
:100C7000C111FACF8EE4F8CF8FE4C111F5CF80E532
:100C8000F3CF8091FA01811108C081E08093FA01CD
:100C90004FEF6FEF85ED0C949D0F0895CF92DF928B
:100CA000EF92FF926B017C010E94B027813089F0A6
:100CB000882349F0823089F0C701B601FF90EF9098
:100CC000DF90CF9008954FEF6FEF85ED0E949D0F5D
:100CD000F3CF40E76AE58BE7F9CF4FEF6FEF84E2A0
:100CE000F5CF81E008950C94F50508950C947506F0
:100CF0001F93CF93DF9300D000D00F92CDB7DEB714
:100D000049835A836B8330917B0289819A813111A7
:100D10001DC06623B9F02223A9F00E946726182F70
:100D2000682F89819A810E94102669817A81812F9A
:100D30000F900F900F900F900F90DF91CF911F9118
:100D40000C945F070E943E26182FEFCF0E94672663
:100D500069817A81EDCFFC01262F4081518162812A
:100D6000738184810C947806CF93DF93EC0160E06B
:100D70000E94AB06BE01DF91CF910C947606CF9313
:100D8000DF93C1E0D0E002C0CC0FDD1F8A95E2F70F
:100D90008C2F0E942828BE0190E080E0DF91CF9147
:100DA0000C9414250E941528811102C00E94B928B4
:100DB0000E947B170C9462090C94640908950C94AA
:100DC000DE0681E008950C94E106CF93C82F0E94BF
:100DD000DF068C2FCF910C94E30608950E947C21AE
:100DE0000E94ED062FEF84E39CE02150804090406C
:100DF000E1F700C000000C94DB290F931F93CF9301
:100E0000DF93EC0161E00E94AB068C01BE010E9401
:100E10007306882371F1BE01C8010E94E71688237A
:100E200041F1BE01C8010E943A19882311F1BE01A7
:100E3000C8010E947B198823E1F0BE01C8010E940D
:100E40009E1A8823B1F0BE01C8010E94391588237B
:100E500081F08A81882341F101308CE5180779F00F
:100E60000E3D8CE51807E9F001151C45E9F40E94D8
:100E7000EE0680E0DF91CF911F910F910895909140
:100E8000F102892F8E7F90FF81608093F10280FFB5
:100E900005C086E292E00E943D05EBCF84E192E03E
:100EA000FACF0E94B928E5CFCE01DF91CF911F91F3
:100EB0000F910C94710690E080E008950895972FAB
:100EC00070E026E0929F600D711D1124FB019CE3F0
:100ED000899FE00DF11D1124EE0FFF1FE455FF4F18
:100EE000859194910895FC01EE0FFF1FE95CFD4F81
:100EF000859194910895CF93DF930E945F070E949C
:100F00008708EC01811520E5920708F041C08115A2
:100F100030E4930708F0B4C0803E910518F5803C9A
:100F2000910508F09DC0883A910570F4853A9105C5
:100F300008F08EC081309105F9F00097E9F0049730
:100F4000D8F4D0E0C0E018C08F3B9105D0F7C85A64
:100F5000D0E0CC0FDD1FC45BDE4F0990D881C02DDF
:100F6000D4640AC08115904258F4C11581E0D807B5
:100F700018F4C83ED10528F7CE01DF91CF9108952E
:100F8000C11590E3D90708F071C0CE019F706AC007
:100F9000811525E5920758F5811534E5930708F08A
:100FA0009EC0811542E5940750F4C11581E5D8072C
:100FB00008F469C0DC2FCC27C16FD06ADDCF982F31
:100FC000969596959E0123703327C115D34508F059
:100FD00077C0C1E0D0E002C0CC0FDD1F2A95E2F758
:100FE00020E2929FC0011124C82BD92B67C0C115E4
:100FF00089E5D807A8F4C11598E5D90708F074C0A9
:10100000C11526E5D20708F09CCF8C2F0E941E093F
:10101000C82FD0E0DC2FCC27CC27DF71D062ACCF3B
:10102000C1153AE5D30708F464C0CE019056811586
:10103000904208F086CF8D2F8F710E941E0990E09C
:10104000982F882788279F719C012C2BE901E6CFD8
:10105000C55AD0E0C658DE4FC881D0E0D0648CCFEE
:10106000805C91090E947307EC0186CFCE0199271D
:10107000D3FF03C0EC01D86C7FCFEC01D06C7CCFE8
:10108000DF70D06A79CFCE01E4E096958795EA9536
:10109000E1F783702C2F26952695237090E2299FE7
:1010A00090011124382B8C2F8370C1E0D0E002C056
:1010B000CC0FDD1F8A95E2F7C22BD32BDC685CCF07
:1010C000C1E0D0E002C0CC0FDD1F2A95E2F730E28C
:1010D000939FC0011124C82BD92BDA684DCFD82F8C
:1010E000CC27C46FD06A48CFDC2FCC27C06FD06A22
:1010F00043CF8C2F8F700E941E0934E0D695C79580
:101100003A95E1F7CF709C2FEC01D06935CF82384A
:101110009105B1F1B0F48133910509F475C048F43B
:101120008932910509F469C08A32910509F473C0C6
:1011300008958533910509F459C08933910501F16A
:101140000895833E9105A9F138F4803E9105F9F0A8
:10115000823E910549F10895863E9105A9F1873EA9
:101160009105C9F1843E910519F52091460321FFAF
:101170001FC08091450384FD14C087EE90E0089560
:10118000209145032370A1F080EE90E00895209116
:10119000450320FD47C03091460330FF09C024FFBE
:1011A00044C090E080E004C02091450322FDF7CFC9
:1011B00008952091450322FD3BC03091460330FD48
:1011C000E3CF24FFF5CFEDCF2091450323FFF0CFF0
:1011D00024FDE7CFD2CF2091450323FD2CC03091D1
:1011E000460331FFEECF84EE90E008952091450351
:1011F00025FFDECF89E290E008952091450325FF89
:10120000D7CF85E390E008952091450326FFD0CF06
:101210008AE290E008952091450326FFC9CF81E33B
:1012200090E0089589E390E0089583EE90E00895BA
:1012300082EE90E0089586EE90E008959091450347
:1012400092FF06C0282F28712830F9F4877F846028
:1012500093FF06C0282F28712831F1F4877E84611E
:101260002091460320FF06C0382F38713830D9F45A
:10127000877F816021FF06C0282F28712831D1F493
:10128000877E816194FD877E0895282F2471243004
:10129000F9F68B7F8860DCCF282F2471243101F789
:1012A0008B7E8861DDCF382F3171313019F78E7F19
:1012B0008860E0CF282F2171213121F78E7E88614F
:1012C000E1CF08950C9461090C944106E82FF0E0F9
:1012D000E55FFC4F80810895CF92DF92EF92FF92FD
:1012E0000F931F93CF93DF9386E492E00E943D0516
:1012F0008BE0E82E83E0F82ED0E0C0E091E4C92E28
:1013000092E0D92E09E312E0DF93CF93DF92CF92E0
:101310000E94D6058EE392E00E943D05F70181917F
:101320007F010E94FD271F928F931F930F930E94AE
:10133000D60587E392E00E943D0521968DB79EB7C2
:1013400008960FB6F8949EBF0FBE8DBFCA30D10568
:10135000D9F6DF91CF911F910F91FF90EF90DF9021
:10136000CF90089580EA8A95F1F7089508951F9324
:10137000CF93DF93CDB7DEB760970FB6F894DEBF9B
:101380000FBECDBF0E947E0B8091140181112EC033
:10139000FE01359686E0DF011D928A95E9F781E32B
:1013A000898382E38A8382E98B8381EF8C8384EF54
:1013B0008D833497AAE0B1E0CE010B9621912D9355
:1013C0008E179F07D9F726E0E6E4F1E0DE011B96D1
:1013D00001900D922A95E1F7FC01A4E0B1E0CE0165
:1013E000419621912D938E179F07D9F78091140173
:1013F00095E0811190E09093160385E0891B80931E
:101400001503AAE0B1E04FE051E061E070E08D919A
:10141000E82FE295EF70F0E011A18F709B0101C001
:10142000220F8A95EAF7922F9095912391A382A19A
:10143000822B82A34A175B0751F7A4E0B1E04AE090
:1014400051E061E070E08D91E82FE295EF70F0E0FF
:1014500011A18F709B0101C0220F8A95EAF7922F8C
:101460009095912391A382A1822B82A34A175B07B7
:1014700051F7E1E0F3E0ABE0B3E08BE093E01192F1
:101480001D928E179F07D9F785E00E94240B0E94BA
:10149000D20660960FB6F894DEBF0FBECDBFDF91C7
:1014A000CF911F910C94930B0E94620B8823F9F04B
:1014B0008091150390E0855F9C4F0E94C30B8111C2
:1014C00013C08091FB018F5F8093FB01863050F049
:1014D000E0911503F0E0E55FFC4F1082118212826B
:1014E000138214820C94DC061092FB01FBCF8091D6
:1014F000160390E0855F9C4F0E94EE0B0C94B6099A
:10150000BF92CF92DF92EF92FF920F931F93CF93F0
:10151000DF93CAE0D1E081E0C82E83E0D82E9FE0BF
:10152000E92E91E0F92EB12C01E010E08881E82F3E
:10153000E295EF70F0E091A18F70980101C0220F49
:101540008A95EAF7892F822B81A39991E92FE29559
:10155000EF70F0E022A19F70A80102C0440F551F58
:101560009A95E2F7CA018095822382A30E94B2096C
:10157000E4E0F1E050E040E020E03191A32FA295BB
:10158000AF70B0E090968C9190E03F7002C095955E
:1015900087953A95E2F780FD53C0802F042E01C055
:1015A000880F0A94EAF7282B4F5F5F4F46305105AA
:1015B00021F7DE019E91E92FE295EF70F0E031A175
:1015C0009F70A80102C0440F551F9A95E2F7CA0107
:1015D0008095832381A38C91E82FE295EF70F0E052
:1015E00092A18F70A80101C0440F8A95EAF7892F54
:1015F000842B82A3F6018081281721F1208381E0CA
:10160000B82AFFEFCF1ADF0AEC16FD0609F08ECFDD
:101610006091160370E0655F7C4F2B2D45E081E003
:1016200093E00E94250B0E94540A8B2DDF91CF91ED
:101630001F910F91FF90EF90DF90CF90BF90089592
:1016400080E0B1CF80E0DCCF0895FF920F931F932D
:10165000CF93DF93F82E092F162FD72FC42F2223D5
:1016600049F081E08093FE010E949C299093FD0146
:101670008093FC018091FE018823A1F08091FC0100
:101680009091FD010E94A829069760F0EF2DF02FA0
:10169000A12FBD2FCE0FDF2FD11DEC17FD0741F479
:1016A0001092FE01DF91CF911F910F91FF9008954D
:1016B00081918D93F2CF55985D9889B185FB8827EC
:1016C00080F908958091FF01811111C08091D800A7
:1016D00080618093D8008AE18A95F1F700C09091EB
:1016E000D900892F817090FF82E08093FF0181E013
:1016F0009091FF01913009F080E008950E945B0B0A
:10170000809314018091140166E0882349F080E001
:101710000E949E0C0E94620B882321F00C949A0B6D
:1017200086E0F6CF08950E94620B811102C00C94EE
:10173000A00B089562E070E085E191E00C94291B14
:1017400062E070E085E191E00C94321B0E9434125B
:10175000882361F089E092E00E943A1281E090E0F3
:101760000E940B1C892B11F40C9437120895809160
:101770000802883039F460E089E092E00E940914A0
:10178000109208020895CF93DF93D82FC92F0E949B
:10179000A60B90E080E00E940B1C0097E9F4ED2F6F
:1017A000FC2FDC01AE5FBD4F2C912193019685305B
:1017B0009105B9F70E94A815882361F00E94AC1525
:1017C0008093010287E092E00E949A1881E0DF9105
:1017D000CF91089580E0F4CF80E0F9CFCF93DF93ED
:1017E000D82FC92F0E94B70BED2FFC2F90E080E07F
:1017F0002191DC01AE5FBD4F2C93019685309105A0
:10180000B9F7809101020E941C1787E092E0DF91F6
:10181000CF910C949118AF92BF92CF92DF92FF922A
:101820000F931F93CF93DF93362F472FE82FF0E0CE
:10183000E15DF84F71110DC06491762F862FDF9115
:10184000CF911F910F91FF90DF90CF90BF90AF90FD
:101850000895C72FD0E02491F22E022F10E056E019
:10186000659FC0011124EFEFF0E0BF010E94B0318D
:10187000832F90E0880F991F35E5369FD001379F61
:10188000B00D11248A1B9B0B982F990F980F6F0195
:10189000CC1ADD0AC09ED001C19EB00DD09EB00D05
:1018A00011248B2F949FA0011124452F55276F01E0
:1018B000C41AD50AC09EA001C19E500DD09E500DE5
:1018C00011245F01A91AB108AC9E6001AD9ED00C35
:1018D000BC9ED00C1124CD2CDD24EC19FD09E09F19
:1018E000E001E19FD00DF09FD00D1124ED2F62306B
:1018F0007105A1F048F46115710569F06130710559
:1019000089F0EB2F852F07C06430710571F088F0E6
:1019100066307105B1F76E2F722F91CFE22F2B2F0A
:101920008D2FF9CFE22F252FF6CFEB2F822F2D2FE2
:10193000F2CF2B2F8F2DE52FEECF0895E7E2F1E0C8
:10194000808361830895CF93DF93762FE901682F19
:10195000842F0E940B0C798368838A83DF91CF9157
:10196000089580911703982F9E7F29F481708260DB
:101970008093170308958635E8F381708465F8CF66
:1019800088E090E00C948B32CF92DF92EF92FF923E
:101990006B017C010E94B10CB701A60188E090E0C8
:1019A000FF90EF90DF90CF900C94A932E7E1F3E045
:1019B00083E0808311828FEF828383831482AAE580
:1019C000B2E012968C911297836012968C9360818C
:1019D0007181828193810C94C40C8091F10280FF0B
:1019E00076C08DE795E09F938F930E94D6058091F6
:1019F000F1020F900F9080FF6AC0809117038170F1
:101A00001F928F9380E695E09F938F930E94D60557
:101A10008091F1020F900F900F900F9080FF57C0B0
:101A20008091170386951F928F9385E495E09F938D
:101A30008F930E94D6058091F1020F900F900F9026
:101A40000F9080FF44C0809118031F928F938BE208
:101A500095E09F938F930E94D6058091F1020F909D
:101A60000F900F900F9080FF32C0809119031F924A
:101A70008F9381E195E09F938F930E94D60580918B
:101A8000F1020F900F900F900F9080FF20C0809177
:101A90001A031F928F9387EF94E09F938F930E9476
:101AA000D6058091F1020F900F900F900F9080FF5C
:101AB0000EC080911B031F928F938BED94E09F9338
:101AC0008F930E94D6050F900F900F900F9008955E
:101AD0008091170380FF02C08695089580E00895E5
:101AE00080911B03833018F48F5F80931B036091F8
:101AF0001703709118038091190390911A030C94A5
:101B0000C40C80911B03882319F0815080931B0320
:101B100060911703709118038091190390911A0333
:101B20000C94C40C70E00C94C7176091280180914C
:101B3000170380FF0AC08091270123E0829FC00124
:101B40001124845E9C4F0C94920D809129019091F8
:101B50002A0123E0829FF0011124E45EFC4F8917E3
:101B600050F71182108212828F5F3396F8CF9091D6
:101B7000170390FF14C09091290120912A0133E0AE
:101B8000939FF0011124E45EFC4F921710F00C9427
:101B9000950D8183608342839F5F3396F6CF0895CE
:101BA000CF93DF9300D00F92CDB7DEB7909117039C
:101BB00090FF0AC09E012F5F3F4F0E94A30C4B81F4
:101BC00069818A810E94B70D0F900F900F90DF916D
:101BD000CF910895CF93DF93EC01EC81F0E0E555D0
:101BE000FA4F4491E7E1F3E0628181810E94D00DD8
:101BF0008C818F5F8C83DF91CF910895CF93DF939A
:101C0000EC01E7E1F3E0438162818C810E94D00D19
:101C10008C818F5F8C83DF91CF9108950F931F93F9
:101C2000CF93DF9300D00F92CDB7DEB78C018091B8
:101C3000110281110AC09E012F5F3F4F4FEF6FEFDE
:101C40000E94A30C8A8180931102F80164816130A3
:101C500069F08091110240E0662361F040E062305B
:101C600011F44091110280E060E004C06091110223
:101C700040E080E00E94B70DF801848190E0019679
:101C800063E070E00E94C43184830F900F900F9046
:101C9000DF91CF911F910F9108954F925F926F92B4
:101CA0007F928F929F92AF92BF92CF92DF92EF92EC
:101CB000FF920F931F93CF93DF9300D00F92CDB776
:101CC000DEB7182FF62E042F722E9091170390FF77
:101CD00057C0E92FE695AE2FB0E0A358BE4F8C91C8
:101CE00080935A029E7F923009F05EC09E012F5F62
:101CF0003F4F812F0E94A30C4B8169818A810E94F2
:101D0000B70D80911803811308C0809119038F11BA
:101D100004C080911A03801729F080915C028260D0
:101D200080935C0210931803F092190300931A0336
:101D3000772009F49CC0609117037091180380917B
:101D4000190390911A030E94C40C8091F10280FF44
:101D500017C080911A031F928F93809119031F92CD
:101D60008F93809118031F928F9387ED92E09F933A
:101D70008F930E94D6050FB6F894DEBF0FBECDBF7D
:101D80000F900F900F90DF91CF911F910F91FF90C7
:101D9000EF90DF90CF90BF90AF909F908F907F900B
:101DA0006F905F904F900895823019F400911A035C
:101DB000A8CF863019F410911803A3CF8930D9F336
:101DC000893109F09ECFE9518E2F8170682E8E2FB8
:101DD00080958170E82EE695F0E0E555F94FC590C5
:101DE000D490412CDD249CEFA92E92E0B92E609175
:101DF0002B01461618F00E94950D83CF842C912C50
:101E00008C9CC0018D9C900D9C9C900D112470E0C9
:101E10000E94B031512E611028C0560E8091F102FF
:101E200080FF11C0DF92CF921F92EF921F925F92BC
:101E30001F924F92BF92AF920E94D6050FB6F894B0
:101E4000DEBF0FBECDBF20912901820E911C9401EF
:101E5000220F331F280D391D245E3C4F402F6F2D5C
:101E6000852D0E94A30C4394C2CF561AD7CF8091E0
:101E7000F10280FF85CF1F920F931F92FF921F9256
:101E80001F9380EB92E073CFE7E1F3E09181282F7D
:101E90004381628188E0890F0C944D0E81E00C949F
:101EA000440FE7E1F3E09181282F4381628188EFBD
:101EB000890F0C944D0E81E00C94510FE7E1F3E093
:101EC000628128E0620F08F46FEF282F438181813F
:101ED0000C944D0E81E00C945E0FE7E1F3E062811B
:101EE00028E0621B08F460E0282F438181810C9474
:101EF0004D0E81E00C946D0FE7E1F3E0438128E0A3
:101F0000420F08F44FEF282F628181810C944D0E0F
:101F100081E00C947C0FE7E1F3E0438128E0421B71
:101F200008F440E0282F628181810C944D0E81E0FD
:101F30000C948B0F21E00C944D0E20E00C944D0E70
:101F4000EF92FF921F93CF93DF93EC0110E0EE240A
:101F5000EA94F12C60912B01161770F00E94950DF8
:101F60009A818C8190FF27C08F5F8C83DF91CF9106
:101F70001F91FF90EF90089520912901422F410F6A
:101F80005527551FCA019A01220F331F280F391FE9
:101F9000245E3C4F70E0C7010E94C431962F8C81B3
:101FA00040911A0360911903199F800D11240E941A
:101FB000A30C1F5FCFCF8150D8CF8F929F92AF924B
:101FC000BF92CF92DF92EF92FF920F931F93CF9326
:101FD000DF93EC018A81BB24BA9480FD02C0BB244C
:101FE000B3948C8181110AC081E0B8122AC080911B
:101FF0002B0181508093130281E08C83A12C4CE053
:10200000942E80912B01A816F8F00E94950D8091D6
:10201000130291E0B91261C081115AC080912B0165
:102020008150809313021C82DF91CF911F910F91F9
:10203000FF90EF90DF90CF90BF90AF909F908F90E8
:10204000089510921302D8CF00912901CA2CD12CE7
:102050000C0D1D2D111DC801880F991F080F191F88
:10206000045E1C4FF80111821082128234E0E32ECC
:10207000F12C812C80911302880D8D301CF1692D7B
:102080000E94A231892F082E000C990BC816D90680
:1020900091F480911A038E9DA0018F9D500D112403
:1020A00055954795559547959801609119038091ED
:1020B00018030E94A30C8B0CF1E0EF1AF108D1F683
:1020C000A3949FCF87FFDFCF90912B01890FDBCFA8
:1020D000815080931302BC82A7CF90E0019660915B
:1020E0002B0170E00E94C431809313028C839CCF3B
:1020F000EF92FF920F931F93CF93DF93EC018C81AC
:10210000811109C081E08C831092120292E09093B9
:102110002601809325018091290190912A0123E0D5
:10212000829FF0011124E45EFC4F891768F110E0F2
:1021300003E060912B01161768F10E94950D8091C4
:10214000250120911202280F20931202909126015E
:10215000980F90932601191654F4022E000C330B9D
:1021600040912B014150550B2417350734F08195D0
:1021700080932501813009F41C82DF91CF911F915A
:102180000F91FF90EF9008951182108212828F5F5D
:102190003396CBCFE12EF12C70E0C7010E94C43101
:1021A00020912901820F482F50E020911202022E27
:1021B000000C330BE216F306BCF020912601022E30
:1021C000000C330B2E153F057CF0809F90011124ED
:1021D000245E3C4F40911A036091190380911803CB
:1021E0000E94A30C1F5FA5CFFA01EE0FFF1FE40FA3
:1021F000F51FE45EFC4F118210821282F3CF0F9321
:102200001F93CF93DF938C01FC018481958101960C
:102210008170992795838483C0E0D5E580912B0157
:10222000C81730F0DF91CF911F910F910C94950D4D
:1022300020912901422F4C0F5527551FCA019A01A1
:10224000220F331F280F391F245E3C4F8C2F869599
:10225000F80144815581840F952F911D8170409123
:102260001A03609119038D9F802D11240E94A30CE5
:10227000CF5FD4CF0F931F93CF93DF93EC0110E088
:1022800000E090912B019017110609F06CF40E9468
:10229000950D8C8190E00196817099278C83DF9158
:1022A000CF911F910F91089520912901A801420F0C
:1022B000511D9A01220F331F240F351F245E3C4FFE
:1022C0004C8160911903809118039695901711061F
:1022D00051F04CF0442349F040911A030E94A30CA2
:1022E0000F5F1F4FCECF4423B9F340E0F7CF8F925B
:1022F0009F92AF92BF92CF92DF92EF92FF920F9395
:102300001F93CF93DF93FC01B280948081E084839C
:1023100000E015E05BE4A52E88248394EE24EA9483
:10232000F12C7BE4C72ED12C80912B01081770F083
:10233000DF91CF911F910F91FF90EF90DF90CF90A1
:10234000BF90AF909F908F900C94950DC02FD0E0D0
:102350001C9FF0011D9FF00D1124E95EFD4F9110AF
:102360001CC01382128220912901CE01820F911D7F
:102370009C01220F331F280F391F245E3C4F1C9FE6
:10238000F0011D9FF00D1124E95EFD4F4281618136
:1023900080810E94A30C0F5FC7CF2381222379F194
:1023A0002150238334818A2D821B311101C0822F59
:1023B0001C9FF0011D9FF00D1124E95EFD4F9091CF
:1023C0001A03899FC0011124B6010E94B0316283B3
:1023D000211104C0332311F01482A38222E02B15B3
:1023E00010F21C9FF0011D9FF00D1124E95EFD4FBE
:1023F000809118038083809119038183B4CF0E9458
:102400006632823091400CF0AECF82E08B1530F511
:102410000E946632B7010E94C4311C9FF0011D9FCB
:10242000F00D1124E95EFD4F808322E02B15C8F4E6
:102430000E946632209119032695622F70E00E9457
:10244000C431280F1C9FF0011D9FF00D1124E95E7F
:10245000FD4F21831282A382848285CF809118034D
:10246000DCCF20911903EECF80915C020895109289
:102470005C02089525E0E7E1F3E0DC0101900D92B4
:102480002A95E1F720915A0230915B0240915C025B
:10249000FC012583368347830895EAE5F2E0118243
:1024A000828184608283089560911703669570E04D
:1024B0004BE050E08CE291E00E947632892B19F4D7
:1024C00081E080935B020E949C2990935402809348
:1024D000530280915C02846080935C028091F102DF
:1024E00080FF08C087E992E09F938F930E94D605F2
:1024F0000F900F90089510925B0280915C028460AF
:1025000080935C028091F10280FF08C08EE792E028
:102510009F938F930E94D6050F900F9008959091EE
:10252000170390FF59C09170811140C09260909341
:10253000170380915C02816080935C026623E9F15D
:1025400060911703709118038091190390911A03F9
:102550000E94C40C8091F10280FF0FC0809117038C
:1025600086951F928F9381E294E09F938F930E94B0
:10257000D6050F900F900F900F90609117036695FE
:1025800070E04BE050E08CE291E00E947632892BC3
:1025900001F10E947B1281E08093560240911A0360
:1025A00060911903809118030C949D0F8B3210F0E9
:1025B0009465BDCF880F982BBACF8091F10280FF30
:1025C000DCCF8091170386951F928F9383E094E070
:1025D000CCCF0E945412DFCF0895682F909117033B
:1025E000969581E0890F8B3208F081E00C948F1270
:1025F00081E00C94ED12682F9091170396958FEF60
:10260000890F09F48AE20C948F1281E00C94FB127A
:1026100061E00C948F1280911703816080931703FF
:102620008091F10280FF0DC01F9281E08F9385E9B8
:1026300093E09F938F930E94D6050F900F900F9079
:102640000F908091170386950C94081360E00C940A
:102650008F1280915902811165C08091F10280FF33
:1026600014C084EC94E09F938F930E94D6058091D0
:10267000F1020F900F9080FF08C08EEA94E09F93C4
:102680008F930E94D6050F900F900E9415288111FC
:1026900010C08091F10280FF08C086E894E09F930B
:1026A0008F930E94D6050F900F900E94B9280E9428
:1026B000D60C0E94C00C609317037093180380938C
:1026C000190390931A0380915C02836080935C02EB
:1026D0006E7FC1F48091F10280FF08C08DE394E029
:1026E0009F938F930E94D6050F900F900E94D60C57
:1026F0000E94C00C60931703709318038093190312
:1027000090931A030E94B10C0E94ED0C0E944D128E
:102710008091170380FF03C086950E94261381E0F5
:10272000809359020895809117038E7F8093170339
:1027300060911703709118038091190390911A0307
:102740000E94C40C8091F10280FF0FC0809117039A
:1027500081701F928F938DE593E09F938F930E94DA
:10276000D6050F900F900F900F900E947B128091D2
:102770005C02816080935C022FEF80E792E0215041
:1027800080409040E1F700C000000C94950D8091CE
:10279000F10280FF10C080911703809581701F9215
:1027A0008F938CEC93E09F938F930E94D6050F90AC
:1027B0000F900F900F908091170380FD0C9493134E
:1027C0000C940B13809117038E7F809317038091D5
:1027D000F10280FF0CC01F921F9283E293E09F934F
:1027E0008F930E94D6050F900F900F900F900E942C
:1027F0007B1280915C02816080935C022FEF80E706
:1028000092E0215080409040E1F700C000000C941D
:10281000950D1F93CF93DF93EC01162F8F8180FFCF
:102820000CC0888180FF24C0809117038160809351
:102830001703888186950E948F128F8181FF06C0C1
:10284000212F4B816A8189810E944D0E8F8182FFE9
:1028500005C08E81882379F00E9454128F8183FFF6
:1028600003C081E080935602DF91CF911F910895BC
:102870000E94E213E2CF0E947B12F0CFEF92FF9210
:102880000F931F93CF93DF9380915B02882309F40A
:1028900075C080915A02E0911703E695E81BE0931A
:1028A0005502823009F071C0F0E0E955FA4FE49129
:1028B000CE2FD0E00AEE1DE080915602882389F0E9
:1028C000109256020E949C299E0120953095820FFD
:1028D000931F9093540280935302109258021092C7
:1028E000570280915302909154020E94A8298C179C
:1028F0009D0708F443C080911602882311F11092BD
:10290000160280911402909115020E94A82980332A
:102910009547B8F00E949C29909315028093140269
:102920008091F10280FF08C085E592E09F938F932C
:102930000E94D6050F900F9080915C028860809372
:102940005C02E0905702F0905802E0915302F0913F
:102950005402CE0FDF1FD0935402C093530283E57D
:1029600092E0F80109958091570290915802892BC5
:1029700029F4EF2819F081E080931602DF91CF91BE
:102980001F910F91FF90EF900895863049F4F0E089
:10299000EC55FA4FE491CE2FD0E00EEF1DE08CCF36
:1029A000893051F4E695F0E0EF55FA4FE491CE2FDF
:1029B000D0E000EA1FE080CF8F3051F4E695F0E0E0
:1029C000E256FA4FE491CE2FD0E00DED1FE074CF28
:1029D000853149F4F0E0E556FA4FE491CE2FD0E08E
:1029E00008E710E169CFC8EED3E00FEF10E18831BE
:1029F00009F462CF833239F4E9E9F5E0C591D49165
:102A00000EE01EE059CFC4EFD1E00AE311E18432B9
:102A100009F452CFC0EDD7E00DE91CE0853209F092
:102A20004BCF8E2F63E00E949631E92FF0E0EA56FB
:102A3000FA4FE491CE2FD0E007E711E13DCFFA0144
:102A4000811101C0FB010994CF93DF93C82FD62FCA
:102A50000E94680D8C1740F00E94680D8D1720F4BD
:102A6000DF91CF910C94F8128C2FDF91CF910C94C1
:102A700008131F93CF93DF93EC01FB011281111117
:102A800010C00E94FC268272FE01E25CFC45E4312B
:102A9000F10508F05BC0EC50FD4C0C94FA310E943B
:102AA000C713812FDF91CF911F91089545E053E126
:102AB00068EF72E10E941F15F4CF48EF52E165E024
:102AC00073E1F8CF4BE55FE06EE47FE0F3CF4EE4D7
:102AD0005FE06BE57FE0EECF49E75FE06AE67FE02D
:102AE000E9CF4AE65FE069E77FE0E4CF47E95FE0EE
:102AF00068E87FE0DFCF48E85FE067E97FE0DACFB2
:102B000041E85DE060E77DE0D5CF40E75DE061E86A
:102B10007DE0D0CF81E00E940813C3CF65E082E062
:102B20000E942415BECF68E086E0FACF6EE089E00F
:102B3000F7CF64E18FE0F4CF67E185E1F1CF88E181
:102B4000EACF62E289E1ECCF83E2E5CF11E0A9CFE1
:102B50008091400381700895809140038695869509
:102B6000869508950E941528811102C00E94B928F7
:102B70000E94482880934003803320F08770886249
:102B80008093400390914003892F817090FF04C08F
:102B9000892F8695869586950C941C178091400305
:102BA000982F969596959695953040F49F5F990F3E
:102BB000990F990F8770892B809340038091400370
:102BC0008160809340030E944C288091F10280FF35
:102BD00011C0809140038695869586951F928F93AC
:102BE00087E197E09F938F930E94D6050F900F90F7
:102BF0000F900F90809140038695869586950C9452
:102C00001C1780914003982F987F79F0885080930B
:102C10004003887F91E009F490E08091400390FBAD
:102C200080F9809340030E944C288091F10280FF3C
:102C300011C0809140038695869586951F928F934B
:102C40008FEF96E09F938F930E94D6050F900F9081
:102C50000F900F90809140038695869586950C94F1
:102C60001C178091400380FD1FC08160809340034A
:102C7000813019F489E080934003809140030E94E1
:102C80004C288091F10280FF08C087ED96E09F9369
:102C90008F930E94D6050F900F90809140038695E8
:102CA000869586950C941C1708958091400380FFAB
:102CB00014C08E7F809340030E944C288091F102C3
:102CC00080FF08C084EC96E09F938F930E94D60506
:102CD0000F900F9080E00C941C170895CF93C09133
:102CE0004003C1708091F10280FF0CC01F92CF930E
:102CF00089EE96E09F938F930E94D6050F900F90D8
:102D00000F900F90CC2319F0CF910C945516CF91C2
:102D10000C94311690914003892F8695869586955F
:102D20008F5F8F719770863080F5880F880F880FBE
:102D3000892B8093400380914003887F91E009F4C0
:102D400090E08091400390FB80F9809340030E94C3
:102D50004C288091F10280FF11C08091400386953C
:102D6000869586951F928F9380EB96E09F938F9325
:102D70000E94D6050F900F900F900F908091400306
:102D80008695869586950C941C1790934003D3CF17
:102D9000863008F085E0909140039770282F220F2D
:102DA000220F220F922B90934003987F21E009F489
:102DB00020E09091400320FB90F9909340030C9405
:102DC0001C170E94C816809140030C944C289C014B
:102DD000FB018281882349F12D3BFCE53F07C9F0C7
:102DE00040F42B3BECE53E0769F02C3B3C4579F089
:102DF00008952F3B9CE5390791F070F0203C3C454D
:102E000089F0089585E00E94E11680E0089580E051
:102E1000FACF0E940116F9CF0E94CE15F6CF0E947C
:102E20006E16F3CF0E948A16F0CF81E00895259A9E
:102E30002D9808952D980895CF92DF92EF92FF92EA
:102E4000CF93C82F863040F5811127C08091800034
:102E50008F77809380000E941A172C2F30E0AFEFFD
:102E6000BFEF0E94003225E030E040E050E00E94D9
:102E7000D831C9012C3764E13607A8F469E070E065
:102E80000E94B0317093890060938800CF91FF90C9
:102E9000EF90DF90CF900895C5E08091800080682A
:102EA00080938000DACF2A50374D4F4F5F4F942FD9
:102EB000832F722F662725EF38E241E050E00E9411
:102EC000D83169017A01CA01B9010E9486319B019A
:102ED000AC01C701B6010E948631672F782F892F78
:102EE00099276115710521E08207910559F66FEF69
:102EF0007FEFC8CF08950E94171782E88093800063
:102F000089E1809381008FEF9FEF909387008093FA
:102F100086000C94B2152AB1342F3F70A1E0B0E0C6
:102F200001C0AA0F3A95EAF72A2B2AB942954F70A9
:102F3000E42FF0E022A14A2F4095422332A1A32B97
:102F40005FB7F8949B01220F331F260F371F280FFE
:102F5000391F2817390741F45FBF87EC90E00197CC
:102F6000F1F700C000000895FC016191CF0178E005
:102F7000ABB9000000C067FF4BB9660F000000C08E
:102F800000C000C04BB900C07A9591F7E2CF46E986
:102F90000C948B170C941A0680911401811106C0B1
:102FA00087EF8093380186EF8093370120913801B5
:102FB000A22FA295AF70B0E091963C9191972F709F
:102FC00081E090E0BC01022E01C0660F0A94EAF78E
:102FD000462F4095432391964C93919792963C911E
:102FE0009297362B92963C93929740913701E42F1B
:102FF000E295EF70F0E031A14F70042E01C0880F10
:103000000A94EAF7982F9095932391A392A1892B84
:1030100082A390968C9190E002C0959587952A9511
:10302000E2F7817020A130E002C0359527954A95DE
:10303000E2F792E020FF90E0892B8093620290916A
:10304000140181E0982790935E02891B80935D02B2
:103050000895CF93E0916202EE0FEE0F20913801B8
:10306000A22FA295AF70B0E090968C9190E02F7057
:1030700002C0959587952A95E2F78170992740912E
:103080003701A42FA295AF70B0E090962C9130E05C
:103090004F7002C0359527954A95E2F7A901417016
:1030A000552720FF02C042E050E0842BE82BE0933C
:1030B0006202C0915E02EF70F0E0E855FE4F808141
:1030C00090916102890F8093610284306CF0EC2F43
:1030D0000C2E000CFF0BE15AFD4F80818F5F808327
:1030E00060E08C2F0E94CA17809161028D3F6CF4C2
:1030F000EC2F0C2E000CFF0BE15AFD4F808181500C
:10310000808361E08C2F0E94CA17809161028378CE
:1031100087FF03C081508C6F8F5F80936102CF91D6
:103120000895E0915E02F0E0E15AFD4F2081FC013C
:1031300020830895FF920F931F93CF93DF93D09135
:103140005D020D2F10E0015A1D4FFC01C081F801F6
:103150008081C81BFC2E1F1464F08C2FC7FD80E0FB
:10316000C81BC11110C0DF91CF911F910F91FF902B
:103170000895FA94F80180818F5F808360E08D2F3D
:103180000E94CA17E8CFCF5FF80180818150808309
:1031900061E08D2F0E94CA17E4CF0F931F93CF9346
:1031A000DF93C62FD42F022FFC0182818823C9F020
:1031B000609365020E949C2990936402809363024D
:1031C00080E28C0F883008F050C0C77081E001C0E9
:1031D000880FCA95EAF7DF91CF911F910F910C9458
:1031E0001C1F10916502161335C0809163029091E7
:1031F00064020E94A829883C910560F5C0E2CD0FC9
:103200001D17B9F080E2810F883040F4177081E01B
:1032100001C0880F1A95EAF70E94231FC83048F4AE
:1032200081E09D2F977001C0880F9A95EAF70E9460
:103230001C1F802F0E94041FC830B8F4D77081E093
:1032400001C0880FDA95EAF7DF91CF911F910F91B6
:103250000C94231F80E28C0F883038F4C77081E013
:1032600001C0880FCA95EAF7EFCFDF91CF911F9188
:103270000F9108959C01CB01233F4CE5340731F1B8
:1032800090F4283DFCE53F07E9F0293D4CE5340783
:1032900069F1273D3C4579F426E241EE61EE0E945A
:1032A000CD1880E00895253FFCE53F07B9F090F088
:1032B000263F3C45B9F0FC0182818823D1F0109271
:1032C0006502089527E245EE65EEE9CF26E241EE7C
:1032D00060EEE5CF27E245EE64EEE1CF26E241EE77
:1032E00062EEDDCF27E245EE66EED9CF28E241E07F
:1032F000EBCF81E00895CF93DF93EC01FB01828156
:10330000882309F419C1C230FCE5DF07C0F1C631DA
:103310009CE5D90730F09E012A5F3C4529303105F4
:1033200070F50E942D289093460380934503C03189
:10333000ECE5DE0709F4CFC008F05BC0C8308CE5CF
:10334000D80709F4B6C088F5C430ECE5DE0709F407
:10335000A8C0C0F4C2308CE5D80709F49CC08091A5
:1033600045038260C330DC4509F498C08091450371
:10337000909146030E943B280E947C2180E0DF91CF
:10338000CF910895809145038061C630ECE5DE075A
:1033900009F484C0809145038860C730DC4508F497
:1033A0007DC080914503806279C0CC308CE5D80720
:1033B00009F489C070F4809145038C60CA30ECE553
:1033C000DE0709F46BC008F478C0809145038E7F56
:1033D00065C0CE308CE5D80709F479C080914503EB
:1033E0008B7FCF30DC4508F459C0809145038F7E38
:1033F00055C0CB3FECE5DE0709F457C030F5C331CB
:103400008CE5D80709F46FC078F4C131ECE5DE072C
:1034100009F465C0C231DC4509F0A8CF0E947C21C7
:10342000809145038F773AC0C5318CE5D80709F400
:1034300062C008F476C0809146038160CA3FDC45D3
:1034400009F094CF8093460391CFCF3FFCE5DF078F
:1034500009F44DC088F4809146038D7FCD3F9CE5F3
:10346000D90781F3809146038E7FCE3FDC4550F330
:10347000809146038360E6CFC130FDE5DF0709F4A4
:1034800059C008F444C080E0C230DD4509F06ECF79
:103490000E94BB286BCF80914503816080934503D8
:1034A00065CF809145038460F9CF809146038260A7
:1034B000C9CF809145038064F1CF0E947C21809127
:1034C00045038068EBCF809145038D7FE7CF8091E6
:1034D0004503877FE3CF809145038F7DDFCF8091C8
:1034E00045038F7BDBCF80914503837FD7CF8091CE
:1034F00046038C7FA7CF8091450382FB992790F9E3
:1035000021E0922790FB82F990FB83F9C7CF80914D
:103510004603982F909591708E7F892B90FB81F9AF
:1035200091CF0E947C2190914503892F97FB87F9C9
:103530008058B4CF81E0ACCF81E021CFCF93DF932F
:10354000EB0186319C4511F50E94FC269A81992356
:1035500099F08A7A91E009F490E0909366028111E3
:1035600009C089E20E94D7260E94482780E0DF91A7
:10357000CF91089585E3F6CF80916602811104C052
:1035800089E20E94DE26F0CF85E3FBCF81E0EFCF1A
:103590008EE1489B02C08150E1F7489BFECF089521
:1035A000589880E28A95F1F7589A0895FC013BE01B
:1035B0003A95F1F720E090E080E031E040E14A9573
:1035C000F1F7880F489B02C08160232742E04A95AB
:1035D000F1F7000040E14A95F1F79F5F6913EECFE4
:1035E00090E19A95F1F799B132E03A95F1F7000040
:1035F00040E14A95F1F7917092272081920F9083D4
:103600000895EF92FF920F931F93CF93DF930F9242
:10361000CDB7DEB719828C017C01E60EF11C0E15C8
:103620001F0561F481E09981911180E00F90DF9195
:10363000CF911F910F91FF90EF9008950E94C81AAB
:1036400068E0CE0101960E94D61AF80181938F019D
:10365000E6CF909369028093680260936702509A64
:10366000589A089590936902809368026093670264
:103670005098589AE89AE9E6F0E080818C7F808340
:1036800008956150770B91E001C0990F6A95EAF7B0
:1036900020E031E0911108C0222391F0589A80E295
:1036A0008A95F1F758980895492F482339F0589A88
:1036B000232740E24A95F1F79695ECCF5898F9CF39
:1036C0005898EDCFFF920F931F93CF93DF93EC01A8
:1036D0008C01060F111DC017D10731F4DF91CF9176
:1036E0001F910F91FF900895F9900E94D01A68E001
:1036F0008F2D0E94411BEFCF1F920F920FB60F929A
:1037000011240F931F932F933F934F935F936F93C6
:103710007F938F939F93AF93BF93EF93FF93CF9339
:10372000DF930F92CDB7DEB719820E94C81A67E007
:10373000CE0101960E94D61A082F06950695069589
:10374000982F92959570202F2570920F292F237016
:10375000969596958770920F891344C0898181113F
:1037600041C0809167028017E8F120E12A95F1F7C6
:10377000589A509A82E08A95F1F700C0A8E00A9F13
:10378000C00111240091680210916902080F191FED
:103790005898F8016581662321F0868197810E94FF
:1037A000621B0E94D01AF0E1FA95F1F758985098F0
:1037B000589A20E12A95F1F7D80112966C91129748
:1037C000662331F113968D919C910E94011BD801C3
:1037D000ED91FC91882311F088E001C082E08083A4
:1037E0000E94C81A0F90DF91CF91FF91EF91BF9186
:1037F000AF919F918F917F916F915F914F913F9189
:103800002F911F910F910F900FBE0F901F90189541
:10381000ED91FC91E1CF0F931F93CF93DF93209114
:103820006702281719060CF471C08C0193E0000F91
:10383000111F9A95E1F7C0916802D0916902C00FFB
:10384000D11FF894509A589825E02A95F1F7000076
:10385000982F969595708570980F892F83709695FF
:103860009695980F092B0E94D01A00C067E0802F10
:103870000E94411B80E18A95F1F75098589A489B25
:1038800017C087E090E0489915C06D81662321F14B
:103890008E819F810E94011B81111EC0509A589AEF
:1038A000E881F98182E08083789482E090E00DC025
:1038B00000C0E5CF019771F4509A589AE881F981D8
:1038C00081E08083789481E090E0DF91CF911F9137
:1038D0000F91089500C0D7CF0E94C81A20E22A9500
:1038E000F1F75898509A80E18A95F1F76A8166233A
:1038F00021F08B819C810E94621B0E94D01AE8817A
:10390000F9811082789490E080E0DFCF84E090E04D
:10391000DCCF90936F0280936E020895E0916E0267
:10392000F0916F02309721F00190F081E02D099421
:1039300080E00895EF92FF920F931F93CF93DF9350
:103940008C01E0916E02F0916F023097C1F102801C
:10395000F381E02D09958091F10282FF30C080FF54
:1039600004C087E398E00E943D05D0E0C0E081E319
:10397000E82E88E0F82E8091F10280FF0EC0F80159
:10398000EC0FFD1F80811F928F93FF92EF920E9498
:10399000D6050F900F900F900F902196C830D1054B
:1039A00051F78091F10280FF0AC08FE298E0DF9129
:1039B000CF911F910F91FF90EF900C943D05DF91F7
:1039C000CF911F910F91FF90EF90089520916C027D
:1039D00030916D022817390771F090936D02809332
:1039E0006C02E0916E02F0916F02309721F0068038
:1039F000F781E02D0994089520916A0230916B02BD
:103A00002817390771F090936B0280936A02E09156
:103A10006E02F0916F02309721F00084F185E02D65
:103A20000994089585B7806885BF85B7806885BF8C
:103A30000895089508950C94191D08950C941D1D62
:103A40000E94121D0E941A1D0C941B1D0C94620BE7
:103A50000E9493290E94B7090E94FF290E94B21573
:103A60000E9429130E94CC170C941E1DCF93C82FBF
:103A70008091F10282FF1EC080FF1CC080E598E0AB
:103A80000E943D058091F10280FF14C01F92CF93E8
:103A90008BE498E09F938F930E94D6058091F1026A
:103AA0000F900F900F900F9080FF04C089E498E072
:103AB0000E943D058C2FCF910C94E506AF92BF92EA
:103AC000CF92DF92EF92FF920F931F93CF93DF93EA
:103AD000CDB7DEB72A970FB6F894DEBF0FBECDBFC5
:103AE0000E94800A0E94261D882309F463C081E792
:103AF000A82E82E0B82E10E000E0C02E802F0E9499
:103B00006609E82EF501D1905F01D81609F44CC082
:103B10008091F10281FD0E946C0980E0FF24F39402
:103B2000DE249D2D9F21D9F18E83CF82EF2081E06D
:103B300009F480E088870E949C298160782F9A8709
:103B400089874E815F8168858A850E94FC1DF80106
:103B5000EF58FD4F8081F826F0820E943E140E94AB
:103B60007A170E9429180E948E1C90917002891762
:103B700091F10E948E1C809370022A960FB6F894E1
:103B8000DEBF0FBECDBFDF91CF911F910F91FF9090
:103B9000EF90DF90CF90BF90AF900C94361D8F5F69
:103BA000FF0C863009F0BDCF0F5F1F4F0A301105A3
:103BB00009F0A3CF8FEF89838A831B820E949C29FF
:103BC0008160782F9D838C8349815A816B818D819F
:103BD0000E94FC1DC2CF2A960FB6F894DEBF0FBE1E
:103BE000CDBFDF91CF911F910F91FF90EF90DF90AC
:103BF000CF90BF90AF900895CF93DF93CDB7DEB74E
:103C00002B970FB6F894DEBF0FBECDBF4F835887FA
:103C100069877A878B871E821D8285E0FE01379631
:103C2000DE01119601900D928A95E1F749815A8142
:103C30006B817C818D819E812B960FB6F894DEBFBF
:103C40000FBECDBFDF91CF910C94F223FC01808198
:103C500091810C94A926CF93C82F882309F483C09F
:103C60008238C1F40E948E1C81FD7DC089E30E94D0
:103C7000D7260E9448272FEF81EE94E02150804004
:103C80009040E1F700C0000089E30E94DE26CF915A
:103C90000C9448278338A1F40E948E1C80FD63C0D9
:103CA00083E50E94D7260E9448272FEF81EE94E0FB
:103CB000215080409040E1F700C0000083E5E5CF4F
:103CC0008438A1F40E948E1C82FD4DC087E40E94BE
:103CD000D7260E9448272FEF81EE94E021508040A4
:103CE0009040E1F700C0000087E4CFCF8CEF8C0F4D
:103CF000813A90F46C2F8091390190913A010E94A1
:103D0000D228882329F08C2F0E94DE260E94482783
:103D10008C2F0E94D726BBCF80E28C0F883048F4CE
:103D2000C77081E001C0880FCA95EAF70E94FF269C
:103D3000AECFEBE5EC0FE33040F4F0E0EA51FE4F9C
:103D4000808190E0CF910C94E61CC85AC73158F49A
:103D5000EC2FF0E0EE0FFF1FE854FE4F80819181C1
:103D6000CF910C94FC1CCF910895882309F44BC08B
:103D7000823871F40E948E1C81FF45C089E30E9445
:103D8000D7260E94482789E30E94DE260C94482704
:103D9000833859F40E948E1C80FF35C083E50E9451
:103DA000D7260E94482783E5EFCF843859F40E9434
:103DB0008E1C82FF28C087E40E94D7260E944827D5
:103DC00087E4E2CF9CEF980F913AF0F290E2980FDF
:103DD000983050F4877091E001C0990F8A95EAF706
:103DE000892F0E940527D2CF9BE5980F933020F4AE
:103DF00090E080E00C94E61C885A873120F490E033
:103E000080E00C94FC1C0895CF93C82F0E942B1EB9
:103E1000C93369F42FEF87EE93E021508040904042
:103E2000E1F700C000008C2FCF910C94B51E8FE3FA
:103E30009CE90197F1F7F5CF882321F00E94FF2636
:103E40000C9448270895882321F00E9405270C949C
:103E500048270895BF92CF92DF92EF92FF920F937F
:103E60001F93CF93DF936C01D62FC72FFC010581E1
:103E700002950F70128111110E941C270E94F526D5
:103E8000E82E882371F01123B1F080E28D0F883085
:103E900090F082E00E9493270E94F52691E0E82EA0
:103EA000E926BC2EB2949FE0B922EB2DF0E0E85F4A
:103EB000FC4C0C94FA31E12CF4CF0C2F0F70C07F26
:103EC00011F00295007F1123A9F0002359F080E240
:103ED0008D0F883010F0D11109C0802F0E94FF266D
:103EE0000E9448278D2F0E942B1E14C0802F0E94F5
:103EF0000F27F6CF8D2F0E94B51E002359F080E2C8
:103F00008D0F883010F0D1112BC0802F0E94052713
:103F10000E944827EB2DE850FF0B349720F40E94B5
:103F20008E1C0E94E506EE2009F497C10E94F1263E
:103F300080FD93C1F60112820E94EB260E94742537
:103F4000C6010E944E210E94EB26DF91CF911F9166
:103F50000F91FF90EF90DF90CF90BF900C9495253C
:103F6000802F0E941527D4CFFC2FFF70FF2EC07F1B
:103F7000C03219F0F29480EFF822DD2369F0D130DD
:103F800049F1112391F1002351F1F601858180FF60
:103F9000A9CF8F70858323C0112381F0011106C042
:103FA0000E942F278F290E941C1FB4CF0130C1F718
:103FB0000E942F278F290E943527ACCF011106C000
:103FC0000E943E278F2D0E94231FA4CF013009F4A9
:103FD000A1CFF6CF112329F0063008F09BCF8F2D0B
:103FE000E2CF053008F096CFEDCF002359F3D93357
:103FF00049F4FFEF27EE33E0F15020403040E1F785
:1040000000C000008D2F0E94B51E84CF8C2F869596
:104010008695837069F0813009F07CCF8D2F9C2FBD
:104020009370111102C090E080E00E94FC1C72CFDE
:104030008D2F9C2F9370111102C090E080E00E94A0
:10404000E61C68CF8C2F837009F041C0111162CF3C
:104050004D2F429546954770440F440F0D2F0F701A
:1040600010E030E020E0042E04C0000F111F221FDA
:10407000331F0A94D2F760E070E0CB01D4FF0FC089
:104080006FE070E080E090E004C0660F771F881F4B
:10409000991F4A95D2F76095709580959095C69531
:1040A000C695C370602B712B822B932BC23049F0C5
:1040B00058F4C13019F00E9428252CCF0E941625F3
:1040C00029CF0E943A2526CF0E94142523CF86951A
:1040D000112311F08C2F8170882309F41BCF4D2FF1
:1040E000429546954770440F440F0D2F0F7010E016
:1040F00030E020E0042E04C0000F111F221F331FE8
:104100000A94D2F760E070E0CB01D4FF0FC06FE0FB
:1041100070E080E090E004C0660F771F881F991F51
:104120004A95D2F76095709580959095C695C695FD
:10413000C370602B712B822B932BC23049F058F443
:10414000C13019F00E94EB25E5CE0E94D925E2CEC0
:104150000E94FD25DFCE0E944E25DCCECF701123BC
:1041600029F08C2F0E9474258D2F1DCF8D2F0E943A
:10417000231F8C2F0E949525CDCED23F89F160F46C
:10418000D03FC9F0D13F29F1112309F442C00111F8
:10419000A9CE8C2F8F7121C0D33F39F1D43FA1F725
:1041A000112369F1CF718C2F0E94742563E08C2F4D
:1041B0000E947E27AFCE112341F0053008F0AACE31
:1041C0008C2F8F710E94B825A5CE063008F0A2CEA4
:1041D000F7CF8C2F8F71112369F20E9474259ACE2C
:1041E0008C2F8F711123C9F3C5CF112329F08C2F88
:1041F0008F710E945F258ECE0E945A258BCE81E062
:104200000E949327023008F485CE82E00E94932713
:1042100081CE002379F0D93341F48FEF97EEE3E0BC
:1042200081509040E040E1F7EBCE8FE39CE90197AD
:10423000F1F7E6CE8C2F8F719DCF4C2F4F706D2FE5
:10424000C6010E945B070E948C2464CE4C2F4F70E5
:104250006D2FC6010E945E075DCEDF91CF911F9149
:104260000F91FF90EF90DF90CF90BF9008950F9344
:104270001F93CF93DF93EC01688179818A810E943B
:10428000B3268C010E940F260E941325B801CE018F
:10429000DF91CF911F910F910C942A1FCF93DF9341
:1042A000EC018B819C81892B29F08881998189235C
:1042B0008F3F19F4DF91CF910895CE010E94FD0642
:1042C0008823C1F3CE010E943721CE01DF91CF9127
:1042D0000C94B4060E941C270E942C270E94482799
:1042E00090E080E00E94E61C90E080E00C94FC1CD2
:1042F0000E94E5260C946A210E940C270C947821D8
:10430000E92FE295EF70E250EE3070F4F0E0E85EF5
:10431000FC4C0C94FA31803F19F020F4883E20F4D4
:1043200081E00895843FE1F380E00895883EC0F382
:10433000813FD1F7F5CF93FB882780F908950E943C
:10434000A9260C948021CF93DF9300D000D00F9248
:10435000CDB7DEB70F900F900F900F900F90DF91B9
:10436000CF910895CF93DF9300D000D000D0CDB788
:10437000DEB726960FB6F894DEBF0FBECDBFDF9135
:10438000CF9108951F93CF93DF93C0917C0216E0E5
:1043900080917D028C1304C0DF91CF911F9108950D
:1043A000D0E01C9FF0011D9FF00D1124E258FD4F3D
:1043B0004081518162817381848195810E94B22103
:1043C0002196C770E5CF4091AE025091AF02609147
:1043D000B0027091B1028091B2029091B3020C943C
:1043E000B2211F93CF93DF938091B302807FA9F412
:1043F0008091B002882389F080917C02C0917D0277
:104400006091AE027091AF02A091B102B091B20280
:10441000D62FD72316E0C81304C0DF91CF911F9188
:10442000089590E0109711F0DF3F19F4019687701E
:10443000F2CF189F9001199F300D1124F901E25815
:10444000FD4F41814713F2CF40814613EFCF4281A8
:104450004111ECCF438154814A1B5B0B483C510511
:1044600028F78091B3028F7080618093B302F901C5
:10447000ED57FD4F80818F70806180838EEA92E0DE
:104480000E944E21DF91CF911F910C94C221AF92D7
:10449000BF92CF92DF92EF92FF920F931F93CF9331
:1044A000DF93CDB7DEB761970FB6F894DEBF0FBECE
:1044B000CDBF8C0185E0F801DE011D9601900D92C3
:1044C0008A95E1F7F80140815181E2808EEAC82E99
:1044D00082E0D82E6091B1027091B202611571052F
:1044E00009F461C19091AE022091AF02892F82231D
:1044F0008F3F09F458C1A380B480F090B002F50159
:10450000E61BF70BFF2009F4FCC08091B302382FA3
:10451000307FE83CF10508F0B2C0311179C0FE2CC3
:10452000251323C0941321C0E1101FC08F70806138
:104530008093B3020E94E321C6010E944E21809124
:10454000B302F80185838F2D61960FB6F894DEBF14
:104550000FBECDBFDF91CF911F910F91FF90EF90D4
:10456000DF90CF90BF90AF900895AB2829F0842FB3
:1045700085238F3F09F033C180E0F82FF170DF2EE3
:1045800080FF3CC080917C0220917D0236E0821346
:1045900015C04D875E878D859E850E94A926292F8F
:1045A00022952F702230F0F0243018F59F70F1F032
:1045B000F8019581907FD1F4D12C1EC090E0389FF6
:1045C000F001399FF00D1124E258FD4F6181651310
:1045D00006C06081641303C062816E110FC0019632
:1045E0008770D5CF9F7011F0882331F3805E8830BB
:1045F00018F3C8010E944E21FD2CA5CFEE2009F42E
:10460000A2CF8091B30281608093B302F12C9BCF43
:10461000251306C0941304C0F801EE2009F48DC0E0
:104620004D875E878D859E850E949F21882319F185
:10463000EE2009F18091B302803270F02091AE0239
:104640003091AF0238872F831986BB86AA868C8764
:10465000CE0107960E944E2186E0F801AEEAB2E054
:1046600001900D928A95E1F70E94F1210E94E321C9
:10467000FF24F39468CFC8010E944E21F9CF311175
:1046800013C07A2DB98AA88A6E2D89890E94A32128
:104690008EEA92E00E944E2186E0F60111928A9500
:1046A000E9F70E94E321B2CF25130FC094130DC088
:1046B000E1100BC0F8018583C8010E944E2186E0FD
:1046C000F60111928A95E9F73ECF4D875E878D8579
:1046D0009E850E949F21882371F2EE2061F28091D5
:1046E000B302803208F4B8CF2091AE023091AF020D
:1046F0003A8329831B82BD82AC828E83CE010196D0
:10470000A9CFE83CF10508F041C0FE2CEE2009F4E9
:10471000B2CF25132AC0941328C08091B30280FD24
:104720001BC0982F907FC1F0F8018583903F31F036
:10473000982F907F905F8F70892B8583C8010E948E
:104740004E2186E0F801AEEAB2E001900D928A9522
:10475000E1F70E94E321F7CE86E0F801AEEAB2E08D
:1047600001900D928A95E1F7EECE4D875E878D859B
:104770009E850E949F2181116FCF8091B30281603D
:104780008093B302C8010E944E21DDCE7A2DB98AF2
:10479000A88A6E2D89890E94A32186E0F6011192D4
:1047A0008A95E9F7D6CFEE2009F465CF4D875E876D
:1047B0008D859E850E949F21F82E882309F45BCF6A
:1047C00086E0F801AEEAB2E001900D928A95E1F739
:1047D0008EEA92E00E94261E0E94F121BACF81E06B
:1047E0008E25CBCE1F93CF93DF93CDB7DEB72C971B
:1047F0000FB6F894DEBF0FBECDBF4F8358876987D1
:104800007A878B879C87CE0107960E944722882350
:1048100069F08A859B85892B39F04F815885842FD3
:1048200085238F3F09F071C016E05FC086E0FE016E
:104830003796DE01119601900D928A95E1F78A85EF
:104840009B85892B89F388859F8189238F3F61F31D
:1048500020917D0230E0C90101968770992740912F
:104860007C024817190671F40E947C2110927D0287
:1048700010927C0286E0EEEAF2E0DF011D928A955A
:10488000E9F7D2CF96E0929FD001939FB00D11240B
:10489000A258BD4FFE01319601900D929A95E1F715
:1048A00080937D020E94C221BFCF819FC00111244D
:1048B00082589D4F0E9447228823E9F0E0917C02B4
:1048C0001E9FF0011124E258FD4F40815181628109
:1048D0007381848195810E94B22180917C0290E055
:1048E00001968770992780937C0280917C02909139
:1048F0007D028913DACF2C960FB6F894DEBF0FBE77
:10490000CDBFDF91CF911F91089569857A858B8501
:104910009C850E94B22188CFEF92FF920F931F9344
:10492000CF93DF938C01892B81F0F12CEE24E3945B
:10493000E8012196F8018491843770F4843008F0FE
:104940005FC08130B1F08230A1F1DF91CF911F9132
:104950000F91FF90EF900895853709F44CC008F44B
:104960003DC09CE7980F903780F78F770E94B51E67
:1049700049C00E5F1F4FFE01849190E2980F98305E
:1049800060F48770FE2D01C0FF0F8A95EAF78F2F24
:104990000E941F270E94482702C00E942B1E8F2DB5
:1049A000815030F2EFE9FFE03197F1F700C00000ED
:1049B000F7CF0E5F1F4FFE01849190E2980F983061
:1049C00050F48770FE2D01C0FF0F8A95EAF78F2FF4
:1049D0000E942527DFCF0E94B51EE1CF0E5F1F4F3B
:1049E000FE01C491C150D8F28FE99FE00197F1F721
:1049F00000C00000F7CF0E5F1F4FFE01F490CFCF35
:104A00000E942B1E8E01CBCF08950C9404250E948A
:104A100005256093E0027093E1028093E202909397
:104A2000E3020C946A2108950C9407250F931F93B9
:104A30000091E0021091E1022091E2023091E30244
:104A4000602B712B822B932B1F910F910C940725B8
:104A50000F931F930091E0021091E1022091E20276
:104A60003091E30260237123822393231F910F91DE
:104A70000C9407250F931F930091E0021091E1021F
:104A80002091E2023091E302602771278227932769
:104A90001F910F910C9407250C944E060E944C25F3
:104AA0006093DC027093DD028093DE029093DF025C
:104AB0000C946A2160E070E0CB010C944E250F93BA
:104AC0001F9341E050E060E070E08A019B0104C068
:104AD000000F111F221F331F8A95D2F7C901B80199
:104AE0001F910F910C944E250F931F9341E050E0BE
:104AF00060E070E004C0440F551F661F771F8A9561
:104B0000D2F78091DC029091DD02A091DE02B0919B
:104B1000DF028A019B01082B192B2A2B3B2BC90191
:104B2000B8011F910F910C944E250F931F9341E0F4
:104B300050E060E070E004C0440F551F661F771F0F
:104B40008A95D2F7CB01BA016095709580959095C2
:104B50000091DC021091DD022091DE023091DF0233
:104B600060237123822393231F910F910C944E2570
:104B70000F931F9341E050E060E070E004C0440FE9
:104B8000551F661F771F8A95D2F78091DC0290919E
:104B9000DD02A091DE02B091DF028A019B010827AD
:104BA00019272A273B27C901B8011F910F910C949F
:104BB0004E250F931F930091DC021091DD0220918E
:104BC000DE023091DF02602B712B822B932B1F9121
:104BD0000F910C944E250F931F930091DC021091BE
:104BE000DD022091DE023091DF02602371238223F7
:104BF00093231F910F910C944E250F931F930091B7
:104C0000DC021091DD022091DE023091DF0260278C
:104C10007127822793271F910F910C944E25089599
:104C2000E92FEE0FE90FEE0F8E0F982F977041E0EE
:104C300001C0440F9A95EAF786958695869595E08A
:104C4000899FF0011124EC54FD4F30E020E070E02A
:104C50005191DF011197CB01022E02C096958795E5
:104C60000A94E2F7817081958527842385278C93A8
:104C70002F5F3F4F2530310559F70895E92FEE0F8B
:104C8000E90FEE0F8E0F982F977086958695869573
:104C900025E0829FF0011124EC54FD4F50E040E0EC
:104CA00080E0219130E0092E02C0369527950A94C4
:104CB000E2F721703327042E01C0220F0A94EAF78D
:104CC000822B4F5F5F4F4530510559F70895BF92D2
:104CD000CF92DF92EF92FF920F931F93CF93DF93C8
:104CE0008C01C090DC02D090DD02E090DE02F090FA
:104CF000DF028091E0029091E102A091E202B09186
:104D0000E302C82AD92AEA2AFB2ACFE1D0E0BC2E46
:104D1000D701C6010C2E04C0B695A7959795879527
:104D20000A94D2F780FD0EC0219788F7B12C8B2D05
:104D3000DF91CF911F910F91FF90EF90DF90CF9077
:104D4000BF900895B8018C2F0E947B07019761F3F3
:104D5000EECFCF93DF93EC010E946726BE01DF9177
:104D6000CF910C947B071F93CF93DF93EB0190912E
:104D70007B02992331F0CB01DF91CF911F910C94ED
:104D8000A926882379F0CB010E946726182F682F67
:104D9000CE010E941026BE01812FDF91CF911F917D
:104DA0000C947B07CB010E943E26182FF4CF682F6E
:104DB0008091390190913A010C940829682F8091D3
:104DC000390190913A010C940A298091390190910E
:104DD0003A010C940C298091E4028595859585957E
:104DE00008958091E402877008959091E40297708D
:104DF00081E009F480E008958091F0020895909197
:104E0000F002892B8093F002089580959091F00232
:104E100098239093F00208951092F00208959091D3
:104E2000EF02892B8093EF02089580959091EF0215
:104E300098239093EF0208951092EF0208959091B5
:104E4000EE02892B8093EE02089580959091EE02F8
:104E500098239093EE0208951092EE0208958091A7
:104E6000E502089508950C9432279091E502981771
:104E700021F08093E5020C94332708958091E50298
:104E8000882329F01092E50280E00C9433270895DE
:104E9000E0913901F0913A018091F0028083E09134
:104EA0003901F0913A0180819091EF02892B808342
:104EB000E0913901F0913A0180819091EE02892BC5
:104EC00080839091E502992381F0E0913901F0917E
:104ED0003A018081892B80838091390190913A0138
:104EE0000E94C02881110E943E2780913901909133
:104EF0003A010C949A1C08950C947B2798E0899FA2
:104F000090011124622B6093E4020E947425809129
:104F1000E4028595859585950C947C271092E40292
:104F200080E00C947C279091E40280958923809303
:104F3000E402282F277071F4282F082E000C330B61
:104F40009217130639F08595859585950E949525CC
:104F50000C948E2708959093F9018093F801089599
:104F6000CF92DF92EF92FF926C01EE24FF2420E0BB
:104F7000C114D104E104F10419F0C701B60120E124
:104F8000C72ED82EE92EFF24C114D104E104F10468
:104F900019F0285FC701B6016B017C0154E0F6945B
:104FA000E794D794C7945A95D1F7C114D104E1047A
:104FB000F10419F02C5FC701B6016B017C0142E0DE
:104FC000F694E794D794C7944A95D1F7C114D104C5
:104FD000E104F10419F02E5FC701B601969587959B
:104FE00077956795672B682B692B09F02F5F822FC8
:104FF000FF90EF90DF90CF900895829590E09C0114
:10500000220F331F220F331F2C7C95958795959582
:1050100087958373282B30E0C901880F991F8A7AFE
:10502000359527952575822B089590E080E00E94A4
:10503000913221E08C3E9E4F09F020E0822F0895AE
:1050400082E090E00C94833283E090E00C94833211
:10505000682F83E090E00C949732CF9384E090E047
:105060000E948332C82F81E290E00E948332982F01
:105070008C2FCF910895CF93C92F682F84E090E0B3
:105080000E9497326C2F81E290E0CF910C9497327E
:1050900086E090E00C948332682F86E090E00C94D8
:1050A0009732AB01BC018FE090E00C94A932AB01C8
:1050B000BC0183E190E00C94A93260E070E0CB0188
:1050C0000C9457286CEE7EEF90E080E00E94B532A1
:1050D00060E082E090E00E94973260E083E090E040
:1050E0000E9497321092E0021092E1021092E202C6
:1050F0001092E30260E084E090E00E94973260E06A
:1051000081E290E00E94973260E085E090E00E94AA
:10511000973260E086E090E00E9497326FEF87E080
:1051200090E00E94973240E050E0BA0188E090E0C1
:105130000E94A93260E08DE090E00E94973240E04A
:1051400050E0BA0188E190E00E94A93260E087E176
:1051500090E00E94973240E050E0BA018CE190E08C
:105160000E94A93260E080E290E00E9497320C94A5
:10517000DF050C946228682F8EE090E00C94973243
:105180009C012E5F3F4FAC01485F5F4F80E02417CA
:10519000350709F40895F90191919F019923B9F315
:1051A0008F5FF5CF662349F0FC0132960896219176
:1051B000261729F0E817F907D1F780E0089581E074
:1051C00008959C01FC0132969FEF80E041914617C3
:1051D00051F09F3F19F4411101C0982F8F5F863025
:1051E000A9F79F3F09F40895290F311D97FD3A95BE
:1051F000F90162830895FC013296089621912613E5
:1052000003C0DF0111971C92E817F907B9F7089559
:105210000C94E1280C94FB28029626E0FC011192E4
:105220002A95E9F70895089508950C9414290E9489
:10523000152980914B03843061F11092F20288E1CC
:1052400090E020E40FB6F894A895809360000FBE1C
:105250002093600080E00E941C1780E00E94E50619
:105260000E94152983B7817F846083BF83B78160E3
:1052700083BF7894889583B78E7F83BF0FB6F894E9
:10528000A895809160008861809360001092600012
:105290000FBE08950895CF930E9413290E94800A9B
:1052A0000E944A29C0E08C2F0E946609811105C026
:1052B000CF5FCA30C1F7CF91089581E0FCCF089548
:1052C0000C945F290E947C210E94B2150E948E1CC2
:1052D0000E94E5060C9460291F921FB61F921124AC
:1052E0008F939F93AF93BF938091F202811113C06C
:1052F0008091410390914203A0914303B0914403F4
:105300004196A11DB11D8093410390934203A09348
:105310004303B0934403BF91AF919F918F911F902E
:105320001FBE1F90189582E084BD93E095BD9AEF53
:1053300097BD80936E0008952FB7F8948091410334
:1053400090914203A0914303B09144032FBF08956D
:105350009C014FB7F8948091410390914203A09132
:105360004303B09144034FBF821B930B089578947D
:105370001F921FB61F9211248F939F93AF93BF93D9
:105380008091410390914203A0914303B091440363
:105390000196A11DB11D8093410390934203A093F8
:1053A0004303B0934403BF91AF919F918F911F909E
:1053B0001FBE1F90189581E08093E00080E28093EB
:1053C000D8001092C9008FE19EE40197F1F700C068
:1053D000000087E090EBDC01809354039093550329
:1053E000A0935603B093570388E19CE00FB6F8945E
:1053F000A895809360000FBE90936000FFCF0E943D
:105400001528811102C00E94B9280E94202880938B
:10541000F1020E942D2890934603809345030E9439
:105420002428682F70E090E080E00C94142580918F
:10543000FE02089508959FB7F8941092F5029FBF59
:1054400090914B03943009F048C02091E9002F70EF
:105450003091EC00932F917030FD90E8922B23E077
:105460002093E9002091EB0020FF34C02091EE0052
:1054700027FF30C02091F302222321F02091E80081
:1054800025FF28C01092F30226E03091E80035FF96
:1054900014C08093F1008091E80085FD27C08091C1
:1054A000E80080FFFCCF8091E8008E778093E800D1
:1054B0009F709093E90080E0089530914B03343061
:1054C00049F43091EB0035FD05C0215041F481E0F5
:1054D0008093F3029F709093E9008FEF0895EFE9B6
:1054E000FFE03197F1F700C00000CFCF8FB7F894FD
:1054F00021E02093F5028FBFDBCFCF93DF9300D065
:105500000F92CDB7DEB790914B03943019F5898394
:105510007B836A8382E08093E9008FEF9091E800BB
:10552000815095FD06C095ED9A95F1F70000811127
:10553000F5CF8091E80085FF0DC050E040E063E0CA
:1055400070E0CE0101960E94F62C8091E8008E77E3
:105550008093E8000F900F900F90DF91CF91089506
:10556000CF93DF93EC010E94D92C823011F084306C
:1055700031F4BE0184E0DF91CF910C947D2ADF915C
:10558000CF910895BC0183E00C947D2ACF93DF93E3
:10559000EC010E94D92C823011F0843039F581E081
:1055A0008093E9008FEF9091E800815095FD06C04F
:1055B00095ED9A95F1F700008111F5CF8091E80003
:1055C00085FF14C050E040E068E070E0CE010E942A
:1055D000F62C8091E8008E778093E80088E0FE0149
:1055E000A6EFB2E001900D928A95E1F7DF91CF919D
:1055F000089588E898E00E943D0580914A03811152
:1056000009C00E94862E0E94E32E8091E2008460F1
:105610008093E200089584E898E00E943D0510928E
:105620004A03089580E898E00C943D058CE798E0E3
:105630000C943D0588E798E00E943D050C94622992
:105640002091F4022F5F822F62E30E94963199230A
:1056500019F02093F40208951092F4028091F5025B
:105660008823F1F080914B038430C1F49091E900DC
:105670009F702091EC00822F817020FD80E8892BA3
:1056800093E09093E9009091EB0090FF04C090911B
:10569000EE0097FD08C08F708093E9001092F5022C
:1056A00008951092F1009091E80095FDFACF909145
:1056B000E80090FFF0CF9091E8009E779093E8008B
:1056C000EACF42E061EC81E00E94022E42E261EC0E
:1056D00082E00E94022E42E261EC83E00C94022EF2
:1056E00080914D03833009F45FC030F48130C1F103
:1056F000823009F49BC008958A3009F487C08B304A
:1057000009F46DC0893009F04EC080914C0381329C
:1057100009F049C08091500390915103029708F01D
:1057200042C08091E800877F8093E8008091E80084
:1057300082FF35C09091F3008091F200029729F426
:105740008091F1008B7F813021F48091F100809372
:10575000FE028091E8008B778093E8000C94362E4F
:1057600080914C03813AF9F48091E800877F80931F
:10577000E8008091500390915103892B61F468E017
:1057800086EF92E070E00E94452D8091E8008B77D3
:105790008093E800089560E090E080E0F3CF80918E
:1057A0004B038111C3CF089580914C03813AD9F7FF
:1057B0008091500390915103892BA9F78091E800C3
:1057C000877F8093E8008091E80080FFFCCF809184
:1057D00045018093F1008091E8008E77BDCF8091E4
:1057E0004C03813201F78091500390915103892B32
:1057F000D1F68091E800877F8093E8000E94362EE2
:1058000080914E03809345010C947C2180914C0340
:10581000813249F68091E800877F8093E8000E94FA
:10582000362E80914F038093FF02089580914C03A0
:10583000813A09F0B8CF8091E800877F8093E80033
:105840008091E80080FFFCCF8091FF02C2CF84B737
:10585000877F84BF0FB6F894A89580916000886117
:1058600080936000109260000FBE80E890E00FB659
:10587000F89480936100909361000FBE0E94201DF8
:105880000E94862E0E94E32E8091E2008460809325
:10589000E2008BE19AE20E94AB2778940E946B3180
:1058A0000E94281D8BE391E00E94891C87E698E006
:1058B0000E943D0580914B03853019F00E945E1DCA
:1058C000F9CF83E698E00E943D050E941729809158
:1058D0004903882379F30E944B29882359F30E94B6
:1058E000E02CE8CF0C94742C292F3327233031057A
:1058F00021F168F42130310509F449C02230310525
:1059000009F44AC090E080E030E020E029C0213274
:10591000310581F122323105A9F76330710590F725
:10592000FB01EE0FFF1FE451FE4F208131816751D3
:105930007E4FFB01808190E013C099278130910553
:1059400099F0009741F08230910589F00397D1F6E4
:10595000ECE8F8E002C0EAECF8E0849190E09F0106
:10596000FA01318320830895EAEBF8E0F6CFE2E90B
:10597000F8E0F3CF6330710528F6660F771FFB015F
:10598000EE50FE4F2081318189E090E0E9CF82E145
:1059900090E029E239E0E4CF8BE590E02EEC38E0AE
:1059A000DFCF80914B03843011F482E0089581E0D1
:1059B000089580910003811102C00C94D12C0895A8
:1059C00080E189BD82E189BD09B400FEFDCF8091EF
:1059D000D8008F7D8093D8008091E0008260809312
:1059E000E0008091E00081FDFCCF0895AF92BF926E
:1059F000CF92DF92FF920F931F93CF93DF936C01AF
:105A0000EB018A010E94552EF82E811123C0011549
:105A1000110539F0F80180819181C81BD90BC80E9E
:105A2000D91EB12CA12C2097A9F08091E80085FD0A
:105A300022C08091E8008E778093E800011511055F
:105A4000A1F0F80180819181A80EB91EB182A082D7
:105A500085E0F82E8F2DDF91CF911F910F91FF9050
:105A6000DF90CF90BF90AF9008950E94552E88236D
:105A7000D1F2F82EEFCFF60181916F018093F10002
:105A80002197FFEFAF1ABF0ACECFFC0180915203DE
:105A90009091530386179707A0F06115710529F4BB
:105AA0009091E8009E779093E80090E06115710571
:105AB00051F4911108C08091E80082FF34C080E069
:105AC0000895BC01F2CF80914B038823C1F185304A
:105AD000C1F18091E80083FD30C08091E80082FD33
